:1000000000400020110600005106000053060000C9
:1000100000000000000000000000000000000000E0
:100020000000000000000000000000005506000075
:100030000000000000000000570600005906000004
:100040005B0600005B0600005B0600005B0600002C
:100050005B060000000000005B0600005B0600007D
:100060005B0600005B0600005B0600005B0600000C
:100070005B0600005B0600005B0600005B060000FC
:100080005B0600005B0600005B0600005B060000EC
:100090005B0600005B0600005B0600005B060000DC
:1000A0005B0600005B06000000000000000000008E
:1000B0000000000000000000000000000000000040
:1000C000054B0648033310B51B1A062B03D9044B06
:1000D000002B00D0984710BDD0080020D008002089
:1000E000000000000648074910B5091A8910CB0F17
:1000F0005918491003D0044B002B00D0984710BD6D
:10010000D0080020D00800200000000010B5074CE7
:100110002378002B09D1FFF7D3FF054B002B02D02A
:10012000044800E000BF0123237010BDD008002068
:10013000000000000C3A0000094B10B5002B03D062
:100140000849094800E000BF08480368002B02D1B5
:10015000FFF7C8FF10BD064B002BF9D09847F7E713
:1001600000000000D40800200C3A0000CC08002059
:1001700000000000144B002B00D1124B9D46402282
:1001800092029A1A924600218B460F461148124A53
:10019000121A00F0D9FA0D4B002B00D098470C4BE7
:1001A000002B00D098470020002104000D000B48D0
:1001B00000F054FA00F084FA2000290000F030F832
:1001C00000F054FA00000800004000200000000089
:1001D00000000000D0080020280900208D06000043
:1001E00080B586B000AFF860B9607A60BB687B61AB
:1001F00000233B610AE07B691B78180000F0F4F8EB
:100200007B6901337B613B6901333B613A697B6800
:100210009A42F0D37B681800BD4606B080BD00004E
:1002200090B587B002AF00F0A3F80423FB6015E09F
:10023000A023DA050121FB6899400B001900A323D4
:10024000DB00D150A023DB050121FA6891400A00B0
:100250001100414A9950FB680133FB60FB680F2B8A
:10026000E6DDA023DB053D4A00219950A023DA05F5
:10027000ED23DB000021D1500023BB6000237B6015
:10028000A023DA05A223DB00D2588023DB0413402D
:1002900002D1622000F0A8F8A023DA05A223DB0037
:1002A000D25880239B02134002D1612000F09CF8B9
:1002B000FC1C00F0BFF8030023707B68002B1BD1EF
:1002C000FB1C1B78002B17D0A023DA05A123DB0031
:1002D00080218901D150A023DA05A123DB008021F0
:1002E000C901D150A023DA05A123DB008021090236
:1002F000D15001237B601AE07B68002B17D0FB1CD8
:100300001B78002B13D0A023DB0513498022920118
:100310005A50A023DB0510498022D2015A50A02355
:10032000DB050D49802212025A5000237B60FA231C
:100330009B00BB6002E0BB68013BBB60BB68002B5D
:10034000F9D1074C074A0849084843230093230082
:1003500000F0DAF994E7C0460C05000044070000FD
:10036000E2070000E30700008B10000010380000D7
:1003700080B500AFA023DA05EC23DB000121D150CA
:10038000A023DB05124A00219950124A124B182172
:10039000D150104A114B1921D1500E4A104B11491E
:1003A000D1500C49A123DB0001225242CA50094915
:1003B000A223DB0001225242CA50064AA023DB00DE
:1003C0000421D150034B01221A60C046BD4680BDB6
:1003D00064070000002000400C0500001405000028
:1003E000240500000050270080B582B000AF020055
:1003F000FB1D1A700D4B01229A600C49FB1D1B78E6
:100400000B4A8B50C046094A8E235B00D358002B01
:10041000F9D0064A8E235B000021D150034B012204
:10042000DA60C046BD4602B080BDC0460020004034
:100430001C05000080B500AF0A4A84235B00D35836
:10044000002B01D1002309E0064A84235B00002130
:10045000D150044AA323DB00D358DBB21800BD46B9
:1004600080BDC0460020004080B500AF00F036F8E7
:10047000031E06D0134B144A1A60144B802212023A
:100480001A6000F06BF8031E05D08023DA05C12343
:10049000DB000121D15000F087F8031E0ED00C4B79
:1004A0001B68012B07D00A4B0A4A1A60C046084B4A
:1004B0001B68012BFBD1084BC0221A60C046BD4609
:1004C00080BDC04604050040DFFF07C0186C004037
:1004D00000EC06407593000014EC064080B500AFB8
:1004E0001A4B1B68FF221340012B2AD1184B1B68A3
:1004F0000F22134025D1174B1B68F022134006D161
:10050000154B1B68F022134001D101231AE0114B57
:100510001B68F0221340102B06D10F4B1B68F022F2
:10052000134001D101230DE00A4B1B68F022134058
:10053000302B06D1084B1B68F022134001D1012358
:1005400000E000231800BD4680BDC046E00F00F06B
:10055000E40F00F0E80F00F0EC0F00F080B500AF02
:100560000D4B1B68FF221340012B11D10B4B1B6855
:100570000F2213400CD10A4B1B68F0221340402B72
:1005800006D1084B1B68F022134001D1012300E083
:1005900000231800BD4680BDE00F00F0E40F00F01E
:1005A000E80F00F0EC0F00F080B500AF144B1B68B3
:1005B000FF221340012B1ED1124B1B680F22134048
:1005C00019D1114B1B68F0221340A02B06D10F4B01
:1005D0001B68F022134001D101230DE00A4B1B6878
:1005E000F0221340D02B06D1084B1B68F022134099
:1005F00001D1012300E000231800BD4680BDC046A4
:10060000E00F00F0E40F00F0E80F00F0EC0F00F056
:1006100003210A4802680A430260094802680A4343
:1006200002600849084A094B9B1A03DD043BC8587D
:10063000D050FBDCFFF718FFFFF79CFD24050040BE
:1006400054050040183A000000000020D0080020A7
:10065000FEE7FEE7FEE7FEE7FEE7FEE710B5010076
:1006600000230022002000F0C1FF10BD10B50021C2
:10067000040001F025F8044B1868C36B002B00D070
:100680009847200003F0B6F84438000070B5094BD5
:10069000094CE41AA41009D0084AA518AD00ED18B9
:1006A0002B68013C9847043D002CF9D103F0AAF8CF
:1006B00070BDC046C8080020CC080020FFFFFF3FE7
:1006C00070B50D4E0D4D0024AD1BAD1005D0A3002F
:1006D000F35801349847A542F9D103F08DF8084E3C
:1006E000084D0024AD1BAD1005D0A300F358013414
:1006F0009847A542F9D170BDC0080020C00800206D
:10070000C0080020C80800200FB400B5064983B017
:1007100004AB086804CB8168019300F0ABF803B028
:1007200008BC04B01847C046000000200EB400B555
:1007300082B003AB04CB8168019300F09BF802B058
:1007400008BC03B01847C046F0B5830743D0541E19
:10075000002A3FD0CEB20200032502E01A00013C7D
:1007600038D3531C16702B42F8D1032C2AD9FF2200
:100770000A40150215432A0415430F2C14D92700EB
:100780001A00103F3E09013636019E19156055606A
:100790009560D56010329642F8D10F2297431037FA
:1007A000DB191440032C0DD91A00271FBE0801368F
:1007B000B6009E1920C2B242FCD1032297430437EF
:1007C000DB191440002C05D0C9B21C191970013373
:1007D0009C42FBD1F0BD14000300C6E7F8B54E46BD
:1007E0004546DE4657464B6EE0B580460E009146C4
:1007F0009B0431D513689A469368002B2AD0524641
:1008000052680025934697085246146804D116E0B2
:1008100001350434AF4210D032002168404601F067
:100820000BFA431CF4D14A460023936053603CBC4E
:1008300090469946A246AB46F8BD4B469B685A4641
:1008400003218A439B1A4A46936008229446E24455
:10085000002BD4D10020E6E701F04EFBE3E7C046D1
:10086000936810B5002B02D0FFF7B8FF10BD53609E
:100870000020FBE7F0B54546DE4657464E46E0B55C
:10088000AFB00190884614001D000993002804D0E1
:10089000836B0093002B00D1EBE1434680220C21B7
:1008A000595E92018BB2134209D10A434346414635
:1008B0009A81496EC24B0B4041464B6693B21A0770
:1008C00000D4B3E142461269002A00D1AEE11A22F7
:1008D00013400A2B00D1B7E11EAB9A4611930023B7
:1008E00056462500C346139312930C9304932B781A
:1008F0002C00002B1BD0252B02D118E0252B03D078
:1009000001342378002BF9D1671B10D0139B35607D
:10091000FA18129B776000930133139212930836F2
:10092000072B26DC049B9C46BC4463460493237837
:10093000002B01D100F02FFD00230EAAD37101225C
:10094000524202920022089220329446203291466E
:100950004032651C63780020002700249046013552
:100960001A00203A582A00D9D0E2964992008A58B3
:100970009746002A01D000F046FC12925646D1E775
:1009800010231C43A30601D500F08EFCE30600D51E
:10099000CBE2630600D4C8E2099B1A8806920022C3
:1009A0000433079209930132069913E010231C4384
:1009B000A30601D500F08DFCE30600D5B8E263067E
:1009C00000D4B5E2099B1A880692002204330699E6
:1009D00007920993002398460EA8C371029803005A
:1009E000013300D112E2802327009F43039700299F
:1009F00000D00FE2002800D074E3002A01D000F0FC
:100A0000EBFB012020400590574607D027233021DB
:100A100014AAD1540EAB3F279C466744029B05990C
:100A200000938B4200DA009143465A1E9341009A8C
:100A300094469C44634600930223039A1A400A9208
:100A400002D0009B023300938423039A1A400B9236
:100A500000D085E2089B009A9C1A002C00DC7FE203
:100A60001398102C01DC00F0C5FC574B12999846E6
:100A7000102399464346A8461D0005E08A1C19002C
:100A80000836103C102C11DD4B46103073604B1CA7
:100A9000356013901293072BF0DD002800D052E24E
:100AA000103C002101225646102CEDDC2B0045465F
:100AB0009846434620183360746013901292072AB8
:100AC00000DDEAE20EABDB790836511C002B00D0CA
:100AD0004EE20A9B002B00D15FE210AB3360022391
:100AE0000230736013901291072900DCF6E20028AF
:100AF00000D0B7E30B9B012100225646802B00D08B
:100B00004FE2089B009C1C1B002C00DC49E2102CCF
:100B100001DC00F088FC2C4B98461023994605E038
:100B2000911C1A000836103C102C12DD274B103097
:100B300033604B467360531C13901293072BEFDD09
:100B4000002800D09DE2103C012100225646102CC6
:100B5000ECDC8C4643461033336063460019746006
:100B600013901293072B00DD89E3591C059C029B0F
:100B7000083662461C1B002C00DD18E2059B37601E
:100B80009C466044736013901291072900DC5DE27B
:100B9000002800D025E3039B12905B073BD5089B00
:100BA000009A9F1A5346002F00DCA7E2102F01DCA9
:100BB00000F032FC044A1299904610260EE0C0461E
:100BC000FFDFFFFF4C380000B0390000C0390000E3
:100BD0008C1C11000833103F102F11DDC84A103053
:100BE0001A604A1C5E6013901292072AF0DD0028FA
:100BF00000D014E2103F012400215346102FEDDCF9
:100C00004246C01984C313901294072C00DC28E2DA
:100C1000002800D0B1E3089B00998B4200DA72E211
:100C2000049A94469C446346049326E24146019804
:100C300000F072FC002800D079E243461A229B891A
:100C400013400A2B00D047E643460E229B5E002B42
:100C500000DA41E62B0022004146019800F022FC18
:100C6000049004982FB03CBC90469946A246AB46EF
:100C7000F0BD00F06DFF10E6089B09925B420893FF
:100C800004231C432B786AE62B78691C2A2B00D19D
:100C9000DAE31A000025303A02950D00092A00D93E
:100CA0005EE600940024A3001C190B786400A418CD
:100CB0001A004D1C303A2900092AF4D90294009CEC
:100CC0004EE6002800D0CAE3A30600D575E3E3068C
:100CD00000D530E1630600D42DE16946099B098AFD
:100CE0001A68043300921180099300E6099B1A1DCB
:100CF0001F68002391460EAAD371029B002F00D1DA
:100D00007FE35A1C00D163E31A000021380001F090
:100D100029FE002800D18BE3C31B05930EABDB79C2
:100D2000039498464B4609930023029376E6634664
:100D30001C432B7813E6002800D0A0E3714A0C92E4
:100D4000A20600D5DEE2E20600D566E2620600D425
:100D500063E2099A118806910021043207910992F1
:100D6000E20700D447E20698079902000A431100FF
:100D70000222002900D12DE6302710A80770437009
:100D8000144327E64B461C432B78E8E543461C43B7
:100D90002B78E4E50022303B0892009429001A00E9
:100DA0000024A3001C190B78640014191A000135E3
:100DB000303A2900092AF4D90894009CD0E500288B
:100DC00000D059E310231C43099AA30600D5A7E2DB
:100DD000E30600D524E2630600D421E20021535E3D
:100DE00006930432DB1707930992002B00DAA4E282
:100DF000069807990EABDB7901229846030002980A
:100E00000B4319000300013300D0ECE5002900D1A9
:100E100069E10394012A00D1BBE1022A00D08FE1ED
:100E2000069A079B57460F20B146AC460C9D010021
:100E30001140695C1E071409013F264339701909E6
:100E40000B00310032001943F1D165464E4606923F
:100E500007935346DB1B0593E0E5002800D008E329
:100E6000294A0C926CE7099A14AF13680EA90093F3
:100E70006B461B783B700023CB711300043309933E
:100E8000012300930593002303940293D4E50028E3
:100E90009AD00EABDF7197E72B78002F00D05EE57C
:100EA000012020375BE501231C432B7857E5099B84
:100EB0001A1D1B680893002B00DADDE62B780992D7
:100EC0004DE52B7801202B2749E5099930220B6845
:100ED00006930023079302331C4310AB1A70483269
:100EE0005A700B0004330993064B763A0C9306991B
:100EF00070E52B786C2B00D159E2102214432EE5BB
:100F0000B0390000E4390000D0390000002800D0DA
:100F1000A8E2002B00D13EE214AF3B7000230EAAE2
:100F2000D371013300930593ADE7099B1A6835E54A
:100F3000099B1A6848E5099A049913681960130017
:100F400004330993D3E411AA59460198FFF746FCEC
:100F5000002800D0E5E0129913984A1C564690E507
:100F6000129A1398511C0EABDB79002B00D1B0E51F
:100F70000EAB07333360012301307360139012917D
:100F8000072900DC9AE0002800D05EE10A9B002BD4
:100F900000D09BE00022012156460B9B802B00D104
:100FA000AFE5029B059C1C1B002C00DCE6E5D34B47
:100FB0009846102C1ADD1023994605E0911C1A0062
:100FC0000836103C102C11DDCD4B103033604B46F1
:100FD0007360531C13901293072BEFDD002811D17F
:100FE000103C012100225646102CEDDC434600192E
:100FF0001033336074601390129107291BDC08369C
:101000000131BBE511AA59460198FFF7E7FB00281B
:1010100000D086E0129A1398511C5646D1E711AAC7
:1010200059460198FFF7DAFB00287AD112991398F4
:101030004C1C5346CFE5002800D027E153460598C5
:101040001F605860012356461390129333000833F3
:10105000039A520705D5089A0099571A002F00DD08
:10106000A4E5089B00998B4200DA0B00049A944691
:101070009C446346049300284CD1002356461293A7
:1010800035E411AA59460198FFF7A8FB002848D17A
:10109000129A1398511C564645E5002800D05FE18E
:1010A0000EABDB79002B0DD053460EAA07321A6027
:1010B0000123524601210120564653600A0008369A
:1010C000013106E50A9B002B00D160E1524610ABCE
:1010D0001360022301210220564653600A0008369D
:1010E00001315AE7039C012A00D1A0E0022A22D153
:1010F0000394002300240693079491E6089B1100B3
:10110000934200DB8CE5049A0B0094469C446346B2
:101110000493B2E711AA59460198FFF75FFB002834
:10112000ABD0D84643469B895B0600D499E50123A2
:101130005B42049395E503940023002406930794EF
:10114000069807990723B1469C460095564600E04D
:101150003E0063464A070340C508CC082A43771E71
:10116000303310003B7021002243F1D106900791EB
:1011700003993200009D4E46C90700D469E6302B22
:1011800000D166E63023971E3B705346DB1B059368
:1011900044E4079B002B46D05746A946069C079D72
:1011A000200029000A22002302F0E4F9013F303236
:1011B0003A700023200029000A2202F0DBF9030024
:1011C00004000D000B43EBD15346DB1B069407953F
:1011D00005934D46FFF722FC002357460593FFF782
:1011E0001DFC11AA59460198FFF7F8FA002898D17A
:1011F000139853462CE70698079903000B430222E5
:101200001900FFF7E7FB11AA59460198FFF7E6FA24
:10121000002886D15646FFF785FB099A11689AE5A2
:1012200013680093DCE5069B092BB5D8039C2722A5
:10123000069B14A930338B54012305930EAB3F2733
:101240009C4603946744FFF7E9FB11AA59460198AD
:10125000FFF7C4FA002800D063E7129A1398511CD4
:10126000564636E411AA59460198FFF7B7FA002806
:1012700000D056E7129A1398511C56468DE6002866
:1012800000D0AAE00121002256468AE611AA59465A
:101290000198FFF7A3FA002800D042E7129B1398A9
:1012A0000293591C564669E40722099B073393436E
:1012B000013294469C44624609921A685B681000A9
:1012C000190003000B430690079101221900FFF754
:1012D00081FB0722099B07339343013294469C44C8
:1012E000624609921A685B681000190003000B43FC
:1012F0000690079100221900FFF76CFBB03900003F
:10130000C03900000721099A07328A4301318C460F
:1013100094446146099111685268069107921FE54D
:10132000072307329A4301339C469444634609934A
:10133000536812680793069257E5069807990023A9
:1013400042428B41190010002D230EAAD3719846FA
:1013500003000B430690079101221900FFF73EFBA3
:1013600011AA59460198FFF739FA002800D0D8E6AB
:10137000129A1398511C5646F5E511AA5946019840
:10138000FFF72CFA002800D0CBE6139869E600227C
:101390000121564605E6139BD8460093002B00D149
:1013A000C0E611AA59460198FFF718FABAE6634653
:1013B00001351C432B78FFF7D2FA0999049A0B6880
:1013C0001A60D2175A600B0004330993FFF78FFAA3
:1013D000380001F001FE0590A0E411AA59460198D9
:1013E000FFF7FCF9002800D09BE6129A1398511CD5
:1013F0005646D6E5129B0D935A1C224B9846FFF792
:1014000058FB0593062B01D906230593059B1E4F18
:1014100000934B46099336E5129A0292541C194ADE
:101420009046FFF7EDFB174B8C469846FFF792FB73
:101430000EABDB79039498464B460993029B0593C8
:1014400000230293FFF7EAFA099B1A1D1B68029317
:10145000002B0ADB6B7809920D00FFF780FA0EABC8
:10146000DF7131E40EAAD77153E501235B42029389
:10147000F0E70EAAD771F3E40EABDF71A2E40EAA77
:10148000D7715BE4B0390000F839000010B50400F2
:101490001300034A10680A002100FFF7EBF910BDA2
:1014A0000000002070B5060002201A4CA5440C0074
:1014B0008989814368468181616E1991E189C18181
:1014C000E16930000791616A09911AA900910491BC
:1014D0008021C90002910591002106916946FFF71C
:1014E000C9F9051E05DB6946300000F019FA00282D
:1014F0000CD16B469B895B0603D54022A38913431D
:10150000A38128008D23DB009D4470BD01256D4221
:10151000EFE7C04698FBFFFF334B70B50500186836
:101520000C00002802D0836B002B3CD00C23E25E21
:1015300093B219070DD52169002915D0DA0721D5F5
:101540000023A360636900205B42A361002921D0CE
:1015500070BDD9063FD55B0728D421690823134302
:10156000A3819BB20029E9D1A022802092008000B3
:101570001A408242E2D02100280000F003FFA38934
:101580002169DBE700229B0700D46269A26000208A
:101590000029DDD10C22A35E1A06D9D540221343BF
:1015A000A3810138D4E700F0D3FABFE7216B00290B
:1015B0000AD023004033994204D0280000F0BEFB3B
:1015C0000C23E25E0023236324239A430023216932
:1015D00063602160C2E709232B60402301201A4386
:1015E000A2814042B4E7C04600000020F8B5DE46C4
:1015F0009B46314B45461C68A4234E4657465B002C
:10160000E0B50500E0580E00904600284BD0436836
:101610001F2B0DDC5C1C002D21D102339B0044608C
:101620001E5000203CBC90469946A246AB46F8BDF1
:10163000224B002B3CD0C820400000E000BF002817
:1016400036D0A42200235200A15843600160A0506C
:1016500040328350043283500124002DDDD09A00A3
:1016600091468144424688214F467A50C422520016
:101670009046804442468739994012688A460A4318
:101680009446424661461160842249465F465200B4
:101690008F50022DC1D1020055468D32FF321168A4
:1016A0000D431560B9E720004D30FF30E050AEE744
:1016B00001204042B6E7C046443800000000000068
:1016C000F0B55746DE464E464546E0B50F00384B6E
:1016D00085B01B68019002934933FF330393A42222
:1016E000029B52009E58002E4ED0039B9946C42365
:1016F0005B00984604339A467468B044A500751997
:10170000B244013C08D52DE06B1DFF331B689F429E
:1017100004D0043D013C25D3002FF5D173686A68DD
:10172000013BA34239D000236B60002AF1D07368DB
:1017300041469B460123A340096819422BD05146DC
:10174000096819422BD12B008433196801989047FE
:1017500073685B45C3D14B461B68B342BFD1043DA0
:10176000013CD9D2134B002B0ED07368002B1BD138
:101770003368002B08D04A463000136000E000BFF9
:101780004B461E68002EB2D105B03CBC904699462F
:10179000A246AB46F0BD9047DAE77460C5E72B0080
:1017A000843318689047D3E7B1463668EAE7C04605
:1017B0004438000000000000034B10B5002B02D09D
:1017C0000248FEF74BFF10BD000000008D06000030
:1017D000F0B5C64600B50C23CA5E804693B20C0035
:1017E000190740D480231B0113436268A381002A98
:1017F00000DC70E0A66A002E31D0424641461568F2
:1018000000229BB20A60DA0400D469E0226D5B0713
:1018100006D56368D21A236B002B01D0E36BD21A72
:101820000023E1694046B047431C3DD0A3893A4AB2
:1018300013400022626022691BB2A3812260DB0494
:1018400047D44346216B1D60002908D02300403354
:10185000994202D0404600F071FA00232363002031
:1018600004BC9046F0BD2669002EF8D022682660A0
:10187000951B00229B0700D16269A260002D04DC49
:10188000EDE736182D1A002DE9DD2B003200E16955
:101890004046676AB8470028F3DC40220120A3894C
:1018A00040421343A381DBE7434619681D29F4D85E
:1018B0001A4B0122CB409A43EFD1A389164E6260A6
:1018C000334022691BB2A3812260DB04B9D5002911
:1018D000B7D12065B5E7E26B002A00DD8AE7BEE7F5
:1018E00000220123E1694046B0470200431C02D0B8
:1018F000A389A66A8BE743461B68002BF8D01D2BF3
:1019000001D0162B03D1434600201D60A8E74021DB
:10191000A3890B43A381A3E7FFF7FFFF010040204A
:1019200070B504000D00002802D0836B002B09D095
:101930000C22AB5E0020002B03D029002000FFF713
:1019400047FF70BD00F004F9F2E7C04610B5011E74
:1019500004D0054B1868FFF7E3FF10BD034B0449A3
:10196000186800F06DFCF8E7000000204438000023
:10197000211900000020704710B5024900F060FCFA
:1019800010BDC04661320000F8B5DE4657464E46EF
:101990004546344BE0B5C363B823002403229B00C3
:1019A000C45004334568C2500833C218043BC250C7
:1019B0000600042328002C606C60AC60AB816C6670
:1019C000EC812C616C61AC61082200215C30FEF777
:1019D000BBFE254B254F9A462B62254BEF6299465D
:1019E0006B62244BED61AB62B56898460923280011
:1019F000AB81083B2C606C60AC606C66EB812C6149
:101A00006C61AC61082200215C309B46FEF79CFEB5
:101A100053462B624B466B624346EF62AB62ED610D
:101A2000F56812232800AB81103BEB812C606C60C1
:101A3000AC606C662C616C61AC61082200215C308A
:101A4000FEF782FE53462B624B466B624346AB6207
:101A50005B46EF62ED61B3633CBC90469946A2469B
:101A6000AB46F8BD79190000B12E0000452F0000EB
:101A7000DD2E0000192F00000020704770B568248B
:101A80004A1E54430E002100743100F0BFFC051EB5
:101A900009D000232200036046600C30A860683241
:101AA0000021FEF751FE280070BDC046214B70B5E5
:101AB0001D680600AB6B002B2DD0B8239B009C4605
:101AC00065446B68AC68013B03D51FE06834013B9B
:101AD0001CD30C21625E002AF8D1012300252000CE
:101AE0005B42E3810233A38165662560A560656082
:101AF00025616561A561082200215C30FEF724FEA6
:101B0000256365636564A564200070BD28680028AE
:101B100005D00500D5E72800FFF736FFCDE7042103
:101B20003000FFF7ABFF28600028F2D10C2300241F
:101B30003360E9E74438000010B5034B03491868E7
:101B400000F07EFB10BDC04644380000613200004A
:101B5000836B10B5002B01D1FFF716FF10BDC046F7
:101B60007047C0467047C0467047C0467047C04681
:101B700010B5034B0349186800F040FB10BDC04688
:101B800000000020791A000010B5034B03491868C3
:101B900000F034FB10BDC0460000002075190000A5
:101BA000F0B5CE46474680B585B0804689461400DC
:101BB00000F092FB012831D0230003AF5C334A468A
:101BC0003900404601F0A4FA0600431C21D0002849
:101BD00030D03978002507E023685A1C226019703C
:101BE0000135B54226D2795DA368013BA360002B85
:101BF000F2DAA269934201DB0A29EDD122004046C4
:101C000001F01CFA431CEBD105B00CBC9046994680
:101C1000F0BD4022A3891343A381F5E74B46013B66
:101C2000FE2BC9D86A464B46D371D17903AF3970C0
:101C30000126CFE74846E7E710B50C23D45E8023A2
:101C40009B011C4204D11C439481546E2343536670
:101C5000FFF7A6FF10BDC0460F4B70B51D6806000C
:101C60000C00002D02D0AB6B002B10D00C23E25ED9
:101C700080239B011A4204D11A43A281626E13434E
:101C80006366310028002200FFF78AFF70BD28003C
:101C9000FFF75EFFEAE7C04600000020F8B50C0041
:101CA000060000F031FF204FBB685D6803239D43B1
:101CB0001E4B2C1B9C466444240B1D4B013C2403EF
:101CC0009C4207DD0021300001F0E0F8BB685B19A1
:101CD000984204D0300000F019FF0020F8BD6142A6
:101CE000300001F0D3F8431C0DD00122BB682D1B3E
:101CF00015435D600F4B30001A68141B1C6000F028
:101D000005FF0120EAE70021300001F0BFF8BA68C2
:101D1000831A0F2BDEDD08490968401A054908605F
:101D200001210B435360D5E7AC040020EF0F000006
:101D3000FF0F0000F0080020B4080020F8B50400F0
:101D40000D1E3CD000F0E0FE290008394868012350
:101D5000050003269D434A199C46614F5368B343CF
:101D6000BE68B24256D06646536006420AD13E0073
:101D700008680836091A2D188868B04265D0CE6800
:101D8000C660B0600120D6187668064233D0554B45
:101D9000284348604D519D4212D8ED08FF3BAA10E0
:101DA000FF3B93407A68ED0013437B60EF19BB68FB
:101DB000CF608B60B960D960200000F0A7FEF8BD4D
:101DC000680A042850D8A809020039303832C00007
:101DD000381808388368032698424CD05A68B243B2
:101DE000954230D29B689842F8D1C368CB60886036
:101DF0009960C160E0E7ED183B4E9368B34242D072
:101E0000D2682843DA609360364B48604D519D425A
:101E1000D6D8C2E76246EB18024206D10A68891A90
:101E200088689B18CA68C260906001221A434A60A1
:101E30002E4AB96012689342BED32D4B2000196818
:101E4000FFF72CFFB8E71800CFE76646D0184068C8
:101E500030423FD190685D19D368C3609860634693
:101E60002B434B604D51A7E7142814D802005C3077
:101E70005B32C000ACE70123921093407A681343B1
:101E80007B600300B2E72843D9609960CB608B6028
:101E900048604D5190E7542805D8280B02006F3058
:101EA0006E32C00094E7AA225200904205D8E80B97
:101EB000020078307732C0008AE70E4A904205D897
:101EC000A80C02007D307C32C00081E7FE207E221B
:101ED00080007DE763462B434B6015606CE7C0468E
:101EE000AC040020FF010000B4040020B80800206A
:101EF000EC08002054050000F0B54E46DE4657467B
:101F00004546E0B5936883B000900C001600002BA6
:101F100025D08B891A072AD50A69002A27D032686A
:101F200093469A072FD5B24B002700259846B14615
:101F3000002D00D172E02B00454500D9AC4B3A0092
:101F4000E1690098666AB047002800DC73E04B4600
:101F50009B683F182D1A181A4B469860E8D100204C
:101F600003B03CBC90469946A246AB46F0BD21006A
:101F70000098FFF7D1FA002800D030E13268A38939
:101F800093469A07CFD4DA075DD5002300209A46FE
:101F900000271D00B14629E0002833D0A846BD42E5
:101FA00000D9B8462068226946466369904207D93D
:101FB000A26894469C4462460192E04500DDE9E057
:101FC000984500DA8FE0666A5246E1690098B047AA
:101FD000061E30DDAD1B0120002D26D04B469B6830
:101FE000B244BF1B9E1B4B469E60B8D0002FD3D17E
:101FF0005B461B689A465B465F6808239C46E34441
:10200000002FF5D03A000A21504600F0ABFC002822
:1020100000D1E2E053460130C51ABFE75B461F68B6
:102020005D6808239C46E34482E721000098FFF79F
:1020300077FC0028D2D00C22A35E4022012013435B
:10204000A38140428CE7002291464D46002D23D0CB
:10205000A268904680229200134226D0C24645458F
:102060004DD39022D20013424ED12F002068524609
:10207000494600F0F9FC4246A368981A2368A0601C
:1020800053442360B368B944ED1BDF1BB76000D134
:1020900065E7A389002DDBD15A46126891465A465E
:1020A000556808229446E344D0E7206823699842A3
:1020B00002D86769BD4259D24746AF4200D92F00C6
:1020C0003A00494600F0D0FCA3682268DB1BD21915
:1020D000A3602260002BD5D121000098FFF720FCDF
:1020E0000028CFD0A7E74246514600F0BDFC42464B
:1020F000A3689B1AA3602368434423606AE7A84649
:1021000020682F00AA46B2E721692268521A924637
:1021100062695700BF18FA0FD7195246501C7F103A
:1021200040193A00B84201D9070002005B0542D5C8
:102130001100009800F06AF98046031E52D0524602
:10214000216900F04FFCA3892A4A134080221343DF
:10215000A381434640462361534650446761FF1ABA
:10216000A7602060A8462F00AA4680E7224B2800DF
:102170009D4200D91800390001F010F93B004A4691
:102180004343E1690098676AB847002800DC52E7DA
:10219000070077E76646514600F066FCB4462368C0
:1021A0002100634423600098FFF7BAFB002800D0A9
:1021B00041E7019E0EE7009800F0AAFC8046002847
:1021C000C7D1009D21692800FFF7B8FD8022A389AF
:1021D0009343743A1BB22A602FE77D1CDEE6012090
:1021E0004042BDE6009A0C3313600C22A35E24E744
:1021F00000FCFF7F7FFBFFFFFFFFFF7FB823F0B5F1
:10220000C6469B00C71800B588460026002F13D08D
:102210007B68BC685D1E0CD4A389012B06D90E22F5
:10222000A35E013302D02000C04706436834013D5D
:10223000F2D23F68002FEBD1300004BC9046F0BDD5
:10224000F8B54746CE4680B5B8278046BF0047441C
:1022500089460026002F14D07B68BC685D1E0DD413
:10226000A389012B07D90E22A35E013303D02100DD
:102270004046C84706436834013DF1D23F68002F0D
:10228000EAD130000CBC90469946F8BD70B5151ED9
:1022900016D00C49100000F05BFE0B4C002801D159
:1022A000200070BD2100280000F052FE0028F7D069
:1022B0000649280000F04CFE0028F1D00020F0E78D
:1022C000014CEDE7003A000048380000E03900001A
:1022D0000048704730040020014B186A7047C04620
:1022E00030040020014824307047C04630040020EC
:1022F00000207047014844307047C0463004002039
:1023000010B5044B0A001B6801001800FFF7BEFF60
:1023100010BDC04600000020014844307047C04650
:102320003004002070B50C001E000E23C95E90B072
:102330001500002915DB01AA00F0E2FF002810DBE0
:10234000F022029B120213400D4A802094466344FF
:102350005A42534133608023DB002B60000110B0F0
:1023600070BD00233360A3891B0603D540230020E2
:102370002B60F4E78023DB002B600020EFE7C046F2
:1023800000E0FFFF70B58B8982B005000C009B0751
:1023900007D523004333236023610123636102B027
:1023A00070BD01AB6A46FFF7BDFF0099060028002B
:1023B00000F02CF800281CD08022134BEB63A3897B
:1023C00020601343009A1BB26261019AA3812061CD
:1023D000002A02D13343A381E1E70E23E15E280006
:1023E00000F0A2FF00280CD00122A38913431BB2E6
:1023F000F0E70C22A35E9A05D1D402221343A381F5
:10240000C7E70C22A35EE5E779190000F0B557464F
:102410004546DE464E46E0B50D000B3583B007005D
:10242000162D00D89FE007239D4300D5C4E0A942A4
:1024300000D9C1E000F068FBF823FF339D4200D8CB
:1024400089E2680A00D1BBE0042800D964E138239E
:102450009846A80980443930C100C94E711808391E
:10246000CC68A14219D0032362689A431300521B1F
:102470000F2A00DDAAE0002A00DB88E003239C4647
:1024800008E06246636893435A1B0F2A00DD9DE013
:10249000002A7CDAE468A142F3D1320034690832C0
:1024A000944200D18BE10323616899438946491B1B
:1024B0000F2900DD70E172613261002900DB87E0E5
:1024C000B04A4B46914500D932E1DB08FF3A9910FA
:1024D000FF3A8A40DB0071689B190A439968726071
:1024E000E360A1609C601300CC60012182109140E8
:1024F00099426FD80B4205D1032290434900043022
:102500000B42FBD003239846C3009946B144CC4606
:1025100082466346DC68A44507D152E1002A00DB0D
:1025200061E1E468A44500D14BE14246636893430E
:102530005A1B0F2AF2DD01208046611905436560B0
:10254000A068E5680836C560A8604046F160B160E3
:1025500010434860CE608E603800E25000F0D6FA3A
:102560002000083021E0102926D8380000F0CCFAED
:10257000102518230220824EF3181A005C68083ACE
:10258000944200D129E1032362689A431300E26870
:10259000A168CA6091600122E318596838000A43B3
:1025A0005A6000F0B3FA2000083003B03CBC9046FB
:1025B0009946A246AB46F0BD0C2300203B60F4E7F1
:1025C00080213F2340208900984646E7404664E743
:1025D0004B46E0E70323B46862689A439046AA42F8
:1025E00003D3531B0F2B00DD88E023004344664ACE
:1025F0000193664B93469A4692681B68EB1801322A
:1026000000D161E1624A944663441B0B1B030093B3
:102610000099380000F03AFC03008146013362D093
:10262000019B834200D9F9E053465B68009A9C46BF
:10263000534662445A60019B1100834200D14FE12E
:102640005B469B68013300D166E14B46019A9B1AB9
:1026500059185346596007234A46134000D11EE1DA
:10266000082189464B49D21A9144CB1A009A380066
:102670004A441105090D5B1A19009B4600F006FC3F
:10268000431C00D13CE14B46C01A01235844184377
:1026900053465B685B441900534659604B46B36030
:1026A0005860B44213D043460F2B00D8E2E04346B3
:1026B000072260680C3B9343063A024005201A4308
:1026C0006260E218506090600F2B00D91CE1534605
:1026D000DB6A994201D95346D96253461B6B994232
:1026E00001D9534619630323B46862689A43531BA4
:1026F000954200D9C1E00F2B00DCBEE00122290089
:1027000013431143651961603800B5606B6000F0D8
:10271000FDF92000083048E7142873D9542800D95F
:10272000B2E06E239846280B80446F30C10094E6D7
:102730005A0A042A6CD9142A00D9C8E011005C3264
:102740005B31D20008235B429C46B2189444634636
:102750009A6803239846944500D1A3E04346516804
:102760009943894500D38DE092689445F6D163463C
:10277000DA6873686146E260A1609460CC60B4E698
:10278000AC040020FF010000AC080020EC08002091
:102790000F10000008100000012360191D43656040
:1027A00070613061C26082601A004B460A43426029
:1027B0003800E15000F0AAF920000830F5E673680F
:1027C00093E608239B46073BDC449B46DA4443469A
:1027D0005246134200D09CE636E0DC680230A34249
:1027E00000D15AE6CFE60122E318596838000A43BF
:1027F0005A60E368A268D3609A6000F087F920000D
:102800000830D2E65B23984680445C30C10024E661
:102810009A09110039323831D20093E7B44200D01E
:1028200061E753465B68009A9C4653466244110038
:102830005A6005E708235B429C46E1444B469B688F
:102840000138994500D084E043460342F2D17368D1
:102850008B4373604900994200D9BBE6002900D13F
:10286000B8E650460B4200D04EE6490004300B4219
:10287000FBD049E601234A465360380000F046F990
:10288000002092E6944672E7AA235B00984211D892
:10289000DD3B9846E80B80447830C100DDE58023BD
:1028A0005B01E3E68910023B8B407268134373605F
:1028B00062465FE72A4B98421CD87C239846A80CB6
:1028C00080447D30C100C8E510330093A0E6542A4F
:1028D00026D84B461A0B11006F326E31D20031E709
:1028E0001B0500D0ACE60120009BB26843440343C3
:1028F0005360ECE6FE217E237F2089009846ACE5FC
:10290000002301209B46C3E6210038000831FFF771
:1029100015FA53465968DAE65B464A469A609AE6E3
:10292000AA2149008A4206D84B46DA0B11007832B8
:102930007731D20006E70A498A4206D84B469A0CFC
:1029400011007D327C31D200FCE6FE227E21920015
:10295000F8E673687EE72B00E80808330BE6C0460C
:102960005405000070B5CDB2830734D0541E002A40
:102970001BD00378AB4219D0032204E0013C14D3EE
:102980000378AB4212D001301042F7D1032C0ED89D
:10299000002C0AD00378AB4208D0041902E0037877
:1029A000AB4203D001308442F9D1002070BDFF2238
:1029B0000B061B0C114019430B04084E1943036806
:1029C000074A4B409A189A433242E3D1043C043000
:1029D000032CF4D8DCE71400D8E7C0468080808060
:1029E000FFFEFEFEF0B505000F2A2FD90B000343B2
:1029F0009B0734D116000C000300103E3509013549
:102A00002D01451927681F6067685F60A7689F6090
:102A1000E7681034DF6010339D42F3D10F239E43EB
:102A20001036851989191340032B1AD91E1F00234C
:102A3000B4080134A400CF58EF500433A342FAD1B4
:102A40000324A643331D2240C918ED18002A05D0DF
:102A50000023CC5CEC5401339342FAD1F0BD050065
:102A6000F6E71A00F2E7C046F0B588420AD98B189B
:102A7000984207D2531E002A03D0CA5CC254013BBD
:102A8000FBD2F0BD05000F2A08D8002AF9D0002398
:102A9000CC5CEC5401339342FAD1F2E70B000343D0
:102AA0009B072DD115000C000300103D2F090137A5
:102AB0003F01C71926681E6066685E60A6689E6052
:102AC000E6681034DE6010339F42F3D10F24A54333
:102AD0001035491914404519032C13D90023271F19
:102AE000BE080136B600CC58EC500433B342FAD1DC
:102AF0000326B7433C1D09192D193240C7D1C0E741
:102B00000500C4E72200C0E77047C0467047C046D2
:102B1000F0B54E464546DE465746E0B585B00190D5
:102B20000E001500002900D19EE037000198083FF3
:102B3000FFF7EAFF7A68032314009C432B000B3352
:102B4000B946162B47D8102110238846454546D84C
:102B50009C4249DACC4938198B46896802908842F0
:102B600000D1C2E001218A4640680100039050462E
:102B700081438C4602998B46DC4461464968014298
:102B80004DD0104200D1A2E029000198FFF73EFC91
:102B9000051E39D0012302007968083A99437F184D
:102BA000BA4200D12EE1221F242A00D914E1132AAF
:102BB00000D9E8E0030032001168196051685960DB
:102BC00092689A60019C31002000FFF7B7F820005E
:102BD000FFF79CFF1BE007218B439846B6D50C23DB
:102BE000019A0025136012E035004346E31A0F2BCB
:102BF00025D84B46012249465B68134023434B606E
:102C00004C4463681A4362600198FFF77FFF280015
:102C100005B03CBC90469946A246AB46F0BD0321A8
:102C200003988C46884321188B46994221DB029AEF
:102C30003500D36892685C46D3609A60D5E74A460F
:102C40000120464652684946024032434E464144BE
:102C5000034372604C444B60636808311843606002
:102C60000198FFF76BF8CFE71100FFF7CFFB0500E6
:102C7000CDE75146114200D086E761463A68BA1A5C
:102C8000924652688A4380188346A3449B4526DBBC
:102C9000029AD3689268D3609A605346524655466A
:102CA0009268DB680835D3609A60221F242A00D915
:102CB00096E0132A72D95346316899607168D960D9
:102CC0001B2A00D9A4E032001033083268E03A68C9
:102CD000BA1A924651460322496891430A00934624
:102CE000A3449B4500DA4FE7D7E7032002998446C7
:102CF000496881434046091910300290814258DAF0
:102D0000D20700D540E760463A68BA1A9246526840
:102D100082430298511803918842E0DC53465246A0
:102D200055469268DB680835D3609A60221F242AD2
:102D300000D98EE0132A00D888E0534631689960A4
:102D40007168D9601B2A00D988E03200103308323C
:102D5000116819605168596092689A6051465B46E3
:102D6000424641449960039B01989A1A01231A43F1
:102D70004A605246526813404246134352465360DB
:102D8000FFF7C4FE43E733680360736843601B2AA0
:102D90002DD803003200083308320DE72B00320033
:102DA00011685C4619605168D146596092689A6012
:102DB0001BE74346FA185B469A604346C91A01234B
:102DC000194351607A6801981340424613437B606F
:102DD000FFF79CFE35001AE73100FFF745FEF1E6EC
:102DE00031002800FFF740FE5C46D146FDE6B3689F
:102DF0008360F368C360242A15D0030032001033C7
:102E00001032D9E6536803229343E4183500ECE608
:102E10005346B1681961F1685961242A0CD0320017
:102E200018331032BCE73369320003610300716963
:102E3000183318324161BFE65346326951469A61F0
:102E40003200706920331832C861A9E72B003200C4
:102E50007EE731002800FFF707FE7FE75346B168A1
:102E60001961F1685961242A03D0320018331032F5
:102E70006EE75346326951469A61320070692033D9
:102E80001832C86164E7C046AC040020002370B566
:102E9000064C05000800236000F09EFC431C00D097
:102EA00070BD2368002BFBD02B60F9E724090020BC
:102EB00070B50C000E25495F00F05CFA002803DBBA
:102EC000236D1B18236570BDA389024A1340A3819B
:102ED000F9E7C046FFEFFFFF00207047F8B5160086
:102EE0001F000C228B5E05000C00DA0507D50E23AF
:102EF000C95E0022022300F029FA0C22A35E054AD3
:102F000028001340A38132000E23E15E3B0000F055
:102F100081F9F8BDFFEFFFFF70B50C000E25495F8A
:102F200000F014FA431C06D08023A2895B011343EE
:102F3000A381206570BDA389014A1340A381F9E7ED
:102F4000FFEFFFFF10B50E23C95E00F077F910BD4B
:102F5000024670B50A4392072AD11E4DEE0104C8FD
:102F600008C9541B9443344017D0D0B2D9B2401A88
:102F70002106014310D190B299B2401A21040143B5
:102F80000AD110021902000A090A401A210201435B
:102F900002D1100E190E401A70BD9A42DFD010BA3D
:102FA00019BA884201D9012070BD0020C04370BD0C
:102FB00002780B7801300131002A09D09A4207D1FA
:102FC00002780B7801300131002A01D09A42EFD00B
:102FD000D01A70BD0101010110B5830725D0037817
:102FE000002B24D00300032102E01A78002A1AD013
:102FF00001330B42F9D119680E4A0F4C8A188A43E3
:10300000224206D1043319680A4A8A188A432242A6
:10301000F8D01A001B78002B03D001321178002958
:10302000FBD1101A10BD181AFCE70300E3E70020DB
:10303000F8E7C046FFFEFEFE80808080F8B50600FF
:103040000D001400002802D0836B002B4ED0A36922
:10305000A3600C23E05E81B20B073CD52369002BF3
:1030600039D0FF22EFB2154080229201114215D0D3
:1030700022686169D31A8B421BDA0133A1680139D6
:10308000A160511C2160177062699A421AD0A3890D
:10309000DB0701D50A2D15D02800F8BD0243616E6B
:1030A000A281144A0A40626661692268D31A8B427F
:1030B000E3DB21003000FEF733FC002808D1226852
:1030C0000123DBE721003000FEF72AFC0028E3D0D3
:1030D00001256D42E0E721003000FEF71DFA0028CF
:1030E000F6D10C23E05E236981B2BAE7FEF730FD2A
:1030F000ADE7C046FFDFFFFF10B5044B0A001B68B9
:1031000001001800FFF79AFF10BDC0460000002024
:10311000F0B5C64600B51E0086B005000C001700CD
:10312000104B002913D01B689846FFF7D1F8009682
:1031300003003A0021002800C047431C03D10023AC
:1031400033608A332B6006B004BC9046F0BD1C6827
:10315000FFF7BEF800960300002203A92800A0474D
:10316000EBE7C046BC080020F0B5C64600B5134BDF
:1031700086B01D6804000F001600114B002813D004
:103180001B689846FFF7A4F8009603003A00210058
:103190002800C047431C03D1002333608A332B60CF
:1031A00006B004BC9046F0BD1C68FFF791F800968D
:1031B0000300002203A92800A047EBE7000000203D
:1031C000BC080020002904D0FF2A04D801200A707E
:1031D00070470020FCE78A23036001204042F7E7A4
:1031E000F0B5C646984600B5094B82B017001C687A
:1031F00005000E00FFF76CF8424603000092310014
:103200003A002800A04702B004BC9046F0BDC0467A
:10321000BC08002070B50500080011000022064C13
:1032200022601A00FCF7DCFF431C00D070BD23684D
:10323000002BFBD02B60F9E724090020002370B598
:10324000064C05000800236000F09EFA431C00D0E5
:1032500070BD2368002BFBD02B60F9E72409002008
:1032600070B505000C1E08D0002802D0836B002B1F
:1032700031D00C22A35E002B02D10026300070BD9D
:1032800021002800FEF7A4FAE36A0600002B04D010
:10329000E16928009847002820DBA3891B0620D479
:1032A000216B002908D023004033994202D0280026
:1032B000FEF744FD00232363616C002904D028003D
:1032C000FEF73CFD00236364FEF74AFC0023A38164
:1032D000FEF748FCD2E7FEF73BFCCAE70126764240
:1032E000DBE721692800FEF729FDD9E710B5034B7C
:1032F00001001868FFF7B4FF10BDC04600000020B1
:10330000002370B5074C050008001100236000F091
:1033100043FA431C00D070BD2368002BFBD02B6008
:10332000F9E7C04624090020002370B5064C0500CB
:103330000800236000F038FA431C00D070BD2368F9
:10334000002BFBD02B60F9E72409002070B50500A5
:10335000080011000022064C22601A0000F02CFA2E
:10336000431C00D070BD2368002BFBD02B60F9E715
:103370002409002070B50500080011000022064C49
:1033800022601A0000F020FA431C00D070BD2368B0
:10339000002BFBD02B60F9E72409002003460B43E8
:1033A0007FD4002243088B4274D303098B425FD33E
:1033B000030A8B4244D3030B8B4228D3030C8B426A
:1033C0000DD3FF22090212BA030C8B4202D3121250
:1033D000090265D0030B8B4219D300E0090AC30B25
:1033E0008B4201D3CB03C01A5241830B8B4201D3D2
:1033F0008B03C01A5241430B8B4201D34B03C01ABB
:103400005241030B8B4201D30B03C01A5241C30A32
:103410008B4201D3CB02C01A5241830A8B4201D3A3
:103420008B02C01A5241430A8B4201D34B02C01A8D
:103430005241030A8B4201D30B02C01A5241CDD232
:10344000C3098B4201D3CB01C01A524183098B427D
:1034500001D38B01C01A524143098B4201D34B0166
:10346000C01A524103098B4201D30B01C01A5241C9
:10347000C3088B4201D3CB00C01A524183088B4250
:1034800001D38B00C01A524143088B4201D34B0039
:10349000C01A5241411A00D20146524110467047AB
:1034A0005DE0CA0F00D04942031000D340425340B0
:1034B00000229C4603098B422DD3030A8B4212D370
:1034C000FC22890112BA030A8B420CD389019211A2
:1034D0008B4208D3890192118B4204D389013AD0DF
:1034E000921100E08909C3098B4201D3CB01C01AB4
:1034F000524183098B4201D38B01C01A52414309C7
:103500008B4201D34B01C01A524103098B4201D3B4
:103510000B01C01A5241C3088B4201D3CB00C01A21
:10352000524183088B4201D38B00C01A5241D9D239
:1035300043088B4201D34B00C01A5241411A00D2BA
:103540000146634652415B10104601D34042002BB6
:1035500000D54942704763465B1000D3404201B535
:10356000002000F005F802BD0029F8D016E77047EA
:103570007047C046002B11D1002A0FD1002900D17D
:10358000002802D00021C943081C07B4024802A148
:103590004018029003BDC046D9FFFFFF03B4684640
:1035A00001B5029800F006F8019B9E4602B00CBCE3
:1035B0007047C046F0B557464E464546DE46E0B534
:1035C000040083B00D00924699468B422FD82CD030
:1035D0004946504600F0AEF829000600200000F0F1
:1035E000A9F8331A9846203B9B4600D574E0534611
:1035F0005A4693401F005346424693401E00AF4236
:1036000029D826D05B46A41BBD41002B00DA79E007
:10361000002200230092019301235A469340019314
:10362000012342469340009319E08242D0D9002200
:103630000023009201930C9B002B01D01C605D6065
:103640000098019903B03CBC90469946A246AB460F
:10365000F0BDA342D6D90022002300920193434635
:10366000002BE8D0FB0772081A4346467B080EE0A1
:10367000AB4201D1A2420CD8A41A9D4101202419C9
:103680006D410021013E24184D41002E06D0AB4271
:10369000EED9013E24196D41002EF8D15B46009809
:1036A000019900196941002B22DB2B005A46D340B7
:1036B0002A004446E2401C005B461500002B2CDB30
:1036C00026009E40330026004746BE403200801A46
:1036D000994100900191AEE7424620239B1A524641
:1036E000DA40414613004A468A4017001F4382E7EA
:1036F000424620239B1A2A0046469A402300F34064
:103700001343D5E74246202300219B1A0022009153
:1037100001920122DA40019282E7424620232600EC
:103720009B1ADE402F00B446974066463B00334369
:10373000C9E7C04610B5002903D100F007F82030D2
:1037400002E0081C00F002F810BDC0461C21012355
:103750001B04984201D3000C10391B0A984201D374
:10376000000A08391B09984201D30009043902A252
:10377000105C40187047C0460403020201010101B9
:10378000000000000000000058220120014B4042D0
:103790001A6070472409002058220120014B404242
:1037A0001A607047240900205822024B00201A603A
:1037B0007047C0462409002058220120014B404296
:1037C0001A6070472409002058220120014B404212
:1037D0001A60704724090020044A1368002B03D0A4
:1037E0001818106018007047014BF9E720090020F5
:1037F00028090020FEE7C046F8B5C046F8BC08BC62
:103800009E467047F8B5C046F8BC08BC9E46704757
:1038100054686520617665726167652067726164CE
:103820006520696E2054544B2564207761732069AC
:103830006E20256420616E642025643A2025630A89
:103840000D0000000800002043000000980E00005A
:103850000C0F00000C0F0000A60E00000C0F000063
:103860000C0F00000C0F00000C0F00000C0F0000EC
:103870000C0F0000AE0E0000C20E00000C0F000086
:10388000800C0000880C00000C0F00008C0D000064
:10389000940D0000940D0000940D0000940D0000A4
:1038A000940D0000940D0000940D0000940D000094
:1038B000940D00000C0F00000C0F00000C0F000016
:1038C0000C0F00000C0F00000C0F00000C0F00008C
:1038D0000C0F00000C0F00000C0F0000BE0D0000CC
:1038E0000C0F00000C0F00000C0F00000C0F00006C
:1038F0000C0F00000C0F00000C0F00000C0F00005C
:103900000C0F00000C0F0000AC0900000C0F0000B1
:103910000C0F00000C0F00000C0F00000C0F00003B
:10392000800900000C0F00000C0F00005A0E000070
:103930000C0F00000C0F00000C0F00000C0F00001B
:103940000C0F00000C0F00000C0F00000C0F00000B
:103950000C0F00000C0F0000660E00008E0E000021
:103960000C0F00000C0F00000C0F0000840D000075
:103970008E0E00000C0F00000C0F0000F20E000075
:103980000C0F0000C20C0000B0090000CA0E0000BD
:103990002E0D00000C0F0000EC0C00000C0F0000BE
:1039A000840900000C0F00000C0F0000360D000011
:1039B0002020202020202020202020202020202007
:1039C00030303030303030303030303030303030F7
:1039D0003031323334353637383941424344454645
:1039E0000000000030313233343536373839616207
:1039F0006364656600000000286E756C6C29000029
:103A0000504F5349580000002E00000000000000F5
:083A100064C7FF7F0100000004
:103A1800080000200000000000000000F402002060
:103A28005C030020C4030020000000000000000028
:103A3800000000000000000000000000000000007E
:103A480000000000000000000000000048380000EE
:103A5800000000000000000000000000000000005E
:103A6800000000000000000000000000000000004E
:103A7800000000000000000000000000000000003E
:103A8800000000000000000000000000000000002E
:103A9800000000000000000000000000000000001E
:103AA800000000000000000000000000000000000E
:103AB80000000000000000000000000000000000FE
:103AC80001000000000000000E33CDAB34126DE69B
:103AD800ECDE05000B000000000000000000000004
:103AE80000000000000000000000000000000000CE
:103AF80000000000000000000000000000000000BE
:103B080000000000000000000000000000000000AD
:103B1800000000000000000000000000000000009D
:103E48004153434949000000000000000000000001
:103E5800000000000000000000000000000000005A
:103E680001000000415343494900000000000000E0
:103E7800000000000000000000000000000000003A
:103E880000000000083A0000E0390000E0390000B6
:103E9800E0390000E0390000E0390000E0390000B6
:103EA800E0390000E0390000E0390000FFFFFFFFC3
:103EB800FFFFFFFFFFFFFFFFFFFF00000000000004
:103EC80000000000AC040020AC040020B404002072
:103ED800B4040020BC040020BC040020C40400205A
:103EE800C4040020CC040020CC040020D40400200A
:103EF800D4040020DC040020DC040020E4040020BA
:103F0800E4040020EC040020EC040020F404002069
:103F1800F4040020FC040020FC0400200405002018
:103F2800040500200C0500200C05002014050020C5
:103F3800140500201C0500201C0500202405002075
:103F4800240500202C0500202C0500203405002025
:103F5800340500203C0500203C05002044050020D5
:103F6800440500204C0500204C0500205405002085
:103F7800540500205C0500205C0500206405002035
:103F8800640500206C0500206C05002074050020E5
:103F9800740500207C0500207C0500208405002095
:103FA800840500208C0500208C0500209405002045
:103FB800940500209C0500209C050020A4050020F5
:103FC800A4050020AC050020AC050020B4050020A5
:103FD800B4050020BC050020BC050020C405002055
:103FE800C4050020CC050020CC050020D405002005
:103FF800D4050020DC050020DC050020E4050020B5
:10400800E4050020EC050020EC050020F405002064
:10401800F4050020FC050020FC0500200406002013
:10402800040600200C0600200C06002014060020C0
:10403800140600201C0600201C0600202406002070
:10404800240600202C0600202C0600203406002020
:10405800340600203C0600203C06002044060020D0
:10406800440600204C0600204C0600205406002080
:10407800540600205C0600205C0600206406002030
:10408800640600206C0600206C06002074060020E0
:10409800740600207C0600207C0600208406002090
:1040A800840600208C0600208C0600209406002040
:1040B800940600209C0600209C060020A4060020F0
:1040C800A4060020AC060020AC060020B4060020A0
:1040D800B4060020BC060020BC060020C406002050
:1040E800C4060020CC060020CC060020D406002000
:1040F800D4060020DC060020DC060020E4060020B0
:10410800E4060020EC060020EC060020F40600205F
:10411800F4060020FC060020FC060020040700200E
:10412800040700200C0700200C07002014070020BB
:10413800140700201C0700201C070020240700206B
:10414800240700202C0700202C070020340700201B
:10415800340700203C0700203C07002044070020CB
:10416800440700204C0700204C070020540700207B
:10417800540700205C0700205C070020640700202B
:10418800640700206C0700206C07002074070020DB
:10419800740700207C0700207C070020840700208B
:1041A800840700208C0700208C070020940700203B
:1041B800940700209C0700209C070020A4070020EB
:1041C800A4070020AC070020AC070020B40700209B
:1041D800B4070020BC070020BC070020C40700204B
:1041E800C4070020CC070020CC070020D4070020FB
:1041F800D4070020DC070020DC070020E4070020AB
:10420800E4070020EC070020EC070020F40700205A
:10421800F4070020FC070020FC0700200408002009
:10422800040800200C0800200C08002014080020B6
:10423800140800201C0800201C0800202408002066
:10424800240800202C0800202C0800203408002016
:10425800340800203C0800203C08002044080020C6
:10426800440800204C0800204C0800205408002076
:10427800540800205C0800205C0800206408002026
:10428800640800206C0800206C08002074080020D6
:10429800740800207C0800207C0800208408002086
:1042A800840800208C0800208C0800209408002036
:1042B800940800209C0800209C080020A4080020E6
:1042C800A4080020FFFFFFFF00000200C531000026
:1042D800B9170000390100000D01000000000000BE
:0400000300000611E2
:00000001FF
